{"contracts/NineLives.sol":{"NineLives":{"abi":[{"inputs":[{"internalType":"address","name":"_usdc","type":"address"},{"internalType":"address","name":"_treasury","type":"address"}],"stateMutability":"nonpayable","type":"constructor"},{"anonymous":false,"inputs":[{"indexed":true,"internalType":"address","name":"owner","type":"address"}],"name":"CatCreated","type":"event"},{"anonymous":false,"inputs":[{"indexed":true,"internalType":"address","name":"owner","type":"address"},{"indexed":false,"internalType":"uint16","name":"streak","type":"uint16"},{"indexed":false,"internalType":"uint8","name":"stage","type":"uint8"}],"name":"CheckedIn","type":"event"},{"anonymous":false,"inputs":[{"indexed":true,"internalType":"address","name":"owner","type":"address"},{"indexed":false,"internalType":"uint8","name":"lives","type":"uint8"}],"name":"LifeLost","type":"event"},{"anonymous":false,"inputs":[{"indexed":true,"internalType":"address","name":"owner","type":"address"},{"indexed":false,"internalType":"uint8","name":"lives","type":"uint8"}],"name":"LifeRestored","type":"event"},{"inputs":[],"name":"CHECK_IN_INTERVAL","outputs":[{"internalType":"uint256","name":"","type":"uint256"}],"stateMutability":"view","type":"function"},{"inputs":[],"name":"MAX_LIVES","outputs":[{"internalType":"uint256","name":"","type":"uint256"}],"stateMutability":"view","type":"function"},{"inputs":[],"name":"RESTORE_COST","outputs":[{"internalType":"uint256","name":"","type":"uint256"}],"stateMutability":"view","type":"function"},{"inputs":[{"internalType":"address","name":"","type":"address"}],"name":"cats","outputs":[{"internalType":"uint8","name":"lives","type":"uint8"},{"internalType":"uint16","name":"streak","type":"uint16"},{"internalType":"uint8","name":"stage","type":"uint8"},{"internalType":"uint64","name":"lastCheckIn","type":"uint64"},{"internalType":"bool","name":"exists","type":"bool"}],"stateMutability":"view","type":"function"},{"inputs":[],"name":"checkIn","outputs":[],"stateMutability":"nonpayable","type":"function"},{"inputs":[],"name":"createCat","outputs":[],"stateMutability":"nonpayable","type":"function"},{"inputs":[{"internalType":"address","name":"user","type":"address"}],"name":"getCat","outputs":[{"components":[{"internalType":"uint8","name":"lives","type":"uint8"},{"internalType":"uint16","name":"streak","type":"uint16"},{"internalType":"uint8","name":"stage","type":"uint8"},{"internalType":"uint64","name":"lastCheckIn","type":"uint64"},{"internalType":"bool","name":"exists","type":"bool"}],"internalType":"struct NineLives.Cat","name":"","type":"tuple"}],"stateMutability":"view","type":"function"},{"inputs":[{"internalType":"address","name":"user","type":"address"}],"name":"hasCat","outputs":[{"internalType":"bool","name":"","type":"bool"}],"stateMutability":"view","type":"function"},{"inputs":[{"internalType":"address","name":"user","type":"address"}],"name":"loseLife","outputs":[],"stateMutability":"nonpayable","type":"function"},{"inputs":[],"name":"restoreLife","outputs":[],"stateMutability":"nonpayable","type":"function"},{"inputs":[{"internalType":"address","name":"user","type":"address"}],"name":"timeUntilNextCheckIn","outputs":[{"internalType":"uint256","name":"","type":"uint256"}],"stateMutability":"view","type":"function"},{"inputs":[],"name":"treasury","outputs":[{"internalType":"address","name":"","type":"address"}],"stateMutability":"view","type":"function"},{"inputs":[],"name":"usdc","outputs":[{"internalType":"contract IERC20","name":"","type":"address"}],"stateMutability":"view","type":"function"}],"evm":{"bytecode":{"linkReferences":{},"object":"60c060405234801561001057600080fd5b50604051610d95380380610d9583398101604081905261002f91610113565b6001600160a01b03821661008a5760405162461bcd60e51b815260206004820152601460248201527f496e76616c69642055534443206164647265737300000000000000000000000060448201526064015b60405180910390fd5b6001600160a01b0381166100e05760405162461bcd60e51b815260206004820152601860248201527f496e76616c6964207472656173757279206164647265737300000000000000006044820152606401610081565b6001600160a01b039182166080521660a052610146565b80516001600160a01b038116811461010e57600080fd5b919050565b6000806040838503121561012657600080fd5b61012f836100f7565b915061013d602084016100f7565b90509250929050565b60805160a051610c1c610179600039600081816101ce01526107f301526000818161010901526108240152610c1c6000f3fe608060405234801561001057600080fd5b50600436106100cf5760003560e01c806361d027b31161008c5780639d8da226116100665780639d8da22614610291578063cb91a07c1461029b578063ebe37a02146102a3578063ee1b0edf146102e657600080fd5b806361d027b3146101c957806382a5ad87146101f057806396be9c1d146101fa57600080fd5b8063183ff085146100d457806336f793f5146100de5780633e413bee146101045780633ea026e71461014357806349b64bd8146101ae57806351e81c31146101c1575b600080fd5b6100dc6102ee565b005b6100f16100ec366004610ac5565b6104a4565b6040519081526020015b60405180910390f35b61012b7f000000000000000000000000000000000000000000000000000000000000000081565b6040516001600160a01b0390911681526020016100fb565b610156610151366004610ac5565b61056d565b6040516100fb9190600060a08201905060ff835116825261ffff602084015116602083015260ff604084015116604083015267ffffffffffffffff606084015116606083015260808301511515608083015292915050565b6100dc6101bc366004610ac5565b610647565b6100f1600981565b61012b7f000000000000000000000000000000000000000000000000000000000000000081565b6100f1620f424081565b610250610208366004610ac5565b60006020819052908152604090205460ff8082169161ffff610100820416916301000000820481169167ffffffffffffffff64010000000082041691600160601b9091041685565b6040805160ff968716815261ffff959095166020860152929094169183019190915267ffffffffffffffff166060820152901515608082015260a0016100fb565b6100f16201518081565b6100dc610749565b6102d66102b1366004610ac5565b6001600160a01b0316600090815260208190526040902054600160601b900460ff1690565b60405190151581526020016100fb565b6100dc61093b565b3360009081526020819052604090208054600160601b900460ff1661032e5760405162461bcd60e51b815260040161032590610af5565b60405180910390fd5b805460009061034f90640100000000900467ffffffffffffffff1642610b37565b9050620151808110156103a45760405162461bcd60e51b815260206004820152601860248201527f416c726561647920636865636b656420696e20746f64617900000000000000006044820152606401610325565b6103b2620151806002610b50565b8111156103cc57815462ffff0019166101001782556103ff565b8154610100900461ffff168260016103e383610b67565b91906101000a81548161ffff021916908361ffff160217905550505b81546bffffffffffffffff0000000019166401000000004267ffffffffffffffff16021780835560009061043b90610100900461ffff16610a7f565b835463ff0000001916630100000060ff8316908102919091178086556040805161010090920461ffff168252602082019290925291925033917f543143ef2d93fa5307b802690111b118f80158eb63aeb1967e871013415c06a4910160405180910390a2505050565b6001600160a01b038116600090815260208181526040808320815160a081018352905460ff808216835261ffff610100830416948301949094526301000000810484169282019290925267ffffffffffffffff6401000000008304166060820152600160601b9091049091161515608082018190526105265750600092915050565b6000816060015167ffffffffffffffff16426105429190610b37565b9050620151808110610558575060009392505050565b6105658162015180610b37565b949350505050565b6040805160a0810182526000808252602080830182905282840182905260608301829052608083018290526001600160a01b03851682528190529190912054600160601b900460ff166105d25760405162461bcd60e51b815260040161032590610af5565b506001600160a01b031660009081526020818152604091829020825160a081018452905460ff808216835261ffff610100830416938301939093526301000000810483169382019390935267ffffffffffffffff6401000000008404166060820152600160601b909204161515608082015290565b6001600160a01b03811660009081526020819052604090208054600160601b900460ff166106875760405162461bcd60e51b815260040161032590610af5565b805460ff166106d85760405162461bcd60e51b815260206004820152601860248201527f43617420686173206e6f206c6976657320746f206c6f736500000000000000006044820152606401610325565b805460ff168160006106e983610b88565b82546101009290920a60ff8181021990931691831602179091558254604051911681526001600160a01b03841691507fd948b7282d54ef44bf4fb0b1d38f0626adb9b838dd1bdc33c53a117a7f03b5309060200160405180910390a25050565b3360009081526020819052604090208054600160601b900460ff166107805760405162461bcd60e51b815260040161032590610af5565b8054600960ff909116106107d65760405162461bcd60e51b815260206004820152601d60248201527f43617420616c726561647920686173206d6178696d756d206c697665730000006044820152606401610325565b6040516323b872dd60e01b81523360048201526001600160a01b037f000000000000000000000000000000000000000000000000000000000000000081166024830152620f424060448301527f000000000000000000000000000000000000000000000000000000000000000016906323b872dd906064016020604051808303816000875af115801561086d573d6000803e3d6000fd5b505050506040513d601f19601f820116820180604052508101906108919190610ba5565b6108d45760405162461bcd60e51b81526020600482015260146024820152731554d110c81d1c985b9cd9995c8819985a5b195960621b6044820152606401610325565b805460ff168160006108e583610bc7565b82546101009290920a60ff8181021990931691831602179091558254604051911681523391507f78d4ae2ffc1e8b72bddae34531b49927f54c4dab8342042af369b0066cb637459060200160405180910390a250565b33600090815260208190526040902054600160601b900460ff16156109975760405162461bcd60e51b815260206004820152601260248201527143617420616c72656164792065786973747360701b6044820152606401610325565b6040805160a081018252600981526000602080830182815283850183815267ffffffffffffffff4281166060870190815260016080880190815233808852958790528887209751885495519451925191511515600160601b0260ff60601b1992909416640100000000026bffffffffffffffff000000001960ff948516630100000002166bffffffffffffffffff0000001961ffff979097166101000262ffffff199098169290941691909117959095179390931617929092171617909255915190917fcafa253929e746deb76c4c5e47b024ba91e9034d6b06e97c1eae152656b22dda91a2565b6000600c8261ffff1610610a9557506003919050565b60078261ffff1610610aa957506002919050565b60038261ffff1610610abd57506001919050565b506000919050565b600060208284031215610ad757600080fd5b81356001600160a01b0381168114610aee57600080fd5b9392505050565b60208082526012908201527110d85d08191bd95cc81b9bdd08195e1a5cdd60721b604082015260600190565b634e487b7160e01b600052601160045260246000fd5b81810381811115610b4a57610b4a610b21565b92915050565b8082028115828204841417610b4a57610b4a610b21565b600061ffff808316818103610b7e57610b7e610b21565b6001019392505050565b600060ff821680610b9b57610b9b610b21565b6000190192915050565b600060208284031215610bb757600080fd5b81518015158114610aee57600080fd5b600060ff821660ff8103610bdd57610bdd610b21565b6001019291505056fea2646970667358221220a040c4db7dde75377ec03e363969cd31df32724988a5ce941e5ce5911c3008f764736f6c63430008140033","opcodes":"PUSH1 0xC0 PUSH1 0x40 MSTORE CALLVALUE DUP1 ISZERO PUSH2 0x10 JUMPI PUSH1 0x0 DUP1 REVERT JUMPDEST POP PUSH1 0x40 MLOAD PUSH2 0xD95 CODESIZE SUB DUP1 PUSH2 0xD95 DUP4 CODECOPY DUP2 ADD PUSH1 0x40 DUP2 SWAP1 MSTORE PUSH2 0x2F SWAP2 PUSH2 0x113 JUMP JUMPDEST PUSH1 0x1 PUSH1 0x1 PUSH1 0xA0 SHL SUB DUP3 AND PUSH2 0x8A JUMPI PUSH1 0x40 MLOAD PUSH3 0x461BCD PUSH1 0xE5 SHL DUP2 MSTORE PUSH1 0x20 PUSH1 0x4 DUP3 ADD MSTORE PUSH1 0x14 PUSH1 0x24 DUP3 ADD MSTORE PUSH32 0x496E76616C696420555344432061646472657373000000000000000000000000 PUSH1 0x44 DUP3 ADD MSTORE PUSH1 0x64 ADD JUMPDEST PUSH1 0x40 MLOAD DUP1 SWAP2 SUB SWAP1 REVERT JUMPDEST PUSH1 0x1 PUSH1 0x1 PUSH1 0xA0 SHL SUB DUP2 AND PUSH2 0xE0 JUMPI PUSH1 0x40 MLOAD PUSH3 0x461BCD PUSH1 0xE5 SHL DUP2 MSTORE PUSH1 0x20 PUSH1 0x4 DUP3 ADD MSTORE PUSH1 0x18 PUSH1 0x24 DUP3 ADD MSTORE PUSH32 0x496E76616C696420747265617375727920616464726573730000000000000000 PUSH1 0x44 DUP3 ADD MSTORE PUSH1 0x64 ADD PUSH2 0x81 JUMP JUMPDEST PUSH1 0x1 PUSH1 0x1 PUSH1 0xA0 SHL SUB SWAP2 DUP3 AND PUSH1 0x80 MSTORE AND PUSH1 0xA0 MSTORE PUSH2 0x146 JUMP JUMPDEST DUP1 MLOAD PUSH1 0x1 PUSH1 0x1 PUSH1 0xA0 SHL SUB DUP2 AND DUP2 EQ PUSH2 0x10E JUMPI PUSH1 0x0 DUP1 REVERT JUMPDEST SWAP2 SWAP1 POP JUMP JUMPDEST PUSH1 0x0 DUP1 PUSH1 0x40 DUP4 DUP6 SUB SLT ISZERO PUSH2 0x126 JUMPI PUSH1 0x0 DUP1 REVERT JUMPDEST PUSH2 0x12F DUP4 PUSH2 0xF7 JUMP JUMPDEST SWAP2 POP PUSH2 0x13D PUSH1 0x20 DUP5 ADD PUSH2 0xF7 JUMP JUMPDEST SWAP1 POP SWAP3 POP SWAP3 SWAP1 POP JUMP JUMPDEST PUSH1 0x80 MLOAD PUSH1 0xA0 MLOAD PUSH2 0xC1C PUSH2 0x179 PUSH1 0x0 CODECOPY PUSH1 0x0 DUP2 DUP2 PUSH2 0x1CE ADD MSTORE PUSH2 0x7F3 ADD MSTORE PUSH1 0x0 DUP2 DUP2 PUSH2 0x109 ADD MSTORE PUSH2 0x824 ADD MSTORE PUSH2 0xC1C PUSH1 0x0 RETURN INVALID PUSH1 0x80 PUSH1 0x40 MSTORE CALLVALUE DUP1 ISZERO PUSH2 0x10 JUMPI PUSH1 0x0 DUP1 REVERT JUMPDEST POP PUSH1 0x4 CALLDATASIZE LT PUSH2 0xCF JUMPI PUSH1 0x0 CALLDATALOAD PUSH1 0xE0 SHR DUP1 PUSH4 0x61D027B3 GT PUSH2 0x8C JUMPI DUP1 PUSH4 0x9D8DA226 GT PUSH2 0x66 JUMPI DUP1 PUSH4 0x9D8DA226 EQ PUSH2 0x291 JUMPI DUP1 PUSH4 0xCB91A07C EQ PUSH2 0x29B JUMPI DUP1 PUSH4 0xEBE37A02 EQ PUSH2 0x2A3 JUMPI DUP1 PUSH4 0xEE1B0EDF EQ PUSH2 0x2E6 JUMPI PUSH1 0x0 DUP1 REVERT JUMPDEST DUP1 PUSH4 0x61D027B3 EQ PUSH2 0x1C9 JUMPI DUP1 PUSH4 0x82A5AD87 EQ PUSH2 0x1F0 JUMPI DUP1 PUSH4 0x96BE9C1D EQ PUSH2 0x1FA JUMPI PUSH1 0x0 DUP1 REVERT JUMPDEST DUP1 PUSH4 0x183FF085 EQ PUSH2 0xD4 JUMPI DUP1 PUSH4 0x36F793F5 EQ PUSH2 0xDE JUMPI DUP1 PUSH4 0x3E413BEE EQ PUSH2 0x104 JUMPI DUP1 PUSH4 0x3EA026E7 EQ PUSH2 0x143 JUMPI DUP1 PUSH4 0x49B64BD8 EQ PUSH2 0x1AE JUMPI DUP1 PUSH4 0x51E81C31 EQ PUSH2 0x1C1 JUMPI JUMPDEST PUSH1 0x0 DUP1 REVERT JUMPDEST PUSH2 0xDC PUSH2 0x2EE JUMP JUMPDEST STOP JUMPDEST PUSH2 0xF1 PUSH2 0xEC CALLDATASIZE PUSH1 0x4 PUSH2 0xAC5 JUMP JUMPDEST PUSH2 0x4A4 JUMP JUMPDEST PUSH1 0x40 MLOAD SWAP1 DUP2 MSTORE PUSH1 0x20 ADD JUMPDEST PUSH1 0x40 MLOAD DUP1 SWAP2 SUB SWAP1 RETURN JUMPDEST PUSH2 0x12B PUSH32 0x0 DUP2 JUMP JUMPDEST PUSH1 0x40 MLOAD PUSH1 0x1 PUSH1 0x1 PUSH1 0xA0 SHL SUB SWAP1 SWAP2 AND DUP2 MSTORE PUSH1 0x20 ADD PUSH2 0xFB JUMP JUMPDEST PUSH2 0x156 PUSH2 0x151 CALLDATASIZE PUSH1 0x4 PUSH2 0xAC5 JUMP JUMPDEST PUSH2 0x56D JUMP JUMPDEST PUSH1 0x40 MLOAD PUSH2 0xFB SWAP2 SWAP1 PUSH1 0x0 PUSH1 0xA0 DUP3 ADD SWAP1 POP PUSH1 0xFF DUP4 MLOAD AND DUP3 MSTORE PUSH2 0xFFFF PUSH1 0x20 DUP5 ADD MLOAD AND PUSH1 0x20 DUP4 ADD MSTORE PUSH1 0xFF PUSH1 0x40 DUP5 ADD MLOAD AND PUSH1 0x40 DUP4 ADD MSTORE PUSH8 0xFFFFFFFFFFFFFFFF PUSH1 0x60 DUP5 ADD MLOAD AND PUSH1 0x60 DUP4 ADD MSTORE PUSH1 0x80 DUP4 ADD MLOAD ISZERO ISZERO PUSH1 0x80 DUP4 ADD MSTORE SWAP3 SWAP2 POP POP JUMP JUMPDEST PUSH2 0xDC PUSH2 0x1BC CALLDATASIZE PUSH1 0x4 PUSH2 0xAC5 JUMP JUMPDEST PUSH2 0x647 JUMP JUMPDEST PUSH2 0xF1 PUSH1 0x9 DUP2 JUMP JUMPDEST PUSH2 0x12B PUSH32 0x0 DUP2 JUMP JUMPDEST PUSH2 0xF1 PUSH3 0xF4240 DUP2 JUMP JUMPDEST PUSH2 0x250 PUSH2 0x208 CALLDATASIZE PUSH1 0x4 PUSH2 0xAC5 JUMP JUMPDEST PUSH1 0x0 PUSH1 0x20 DUP2 SWAP1 MSTORE SWAP1 DUP2 MSTORE PUSH1 0x40 SWAP1 KECCAK256 SLOAD PUSH1 0xFF DUP1 DUP3 AND SWAP2 PUSH2 0xFFFF PUSH2 0x100 DUP3 DIV AND SWAP2 PUSH4 0x1000000 DUP3 DIV DUP2 AND SWAP2 PUSH8 0xFFFFFFFFFFFFFFFF PUSH5 0x100000000 DUP3 DIV AND SWAP2 PUSH1 0x1 PUSH1 0x60 SHL SWAP1 SWAP2 DIV AND DUP6 JUMP JUMPDEST PUSH1 0x40 DUP1 MLOAD PUSH1 0xFF SWAP7 DUP8 AND DUP2 MSTORE PUSH2 0xFFFF SWAP6 SWAP1 SWAP6 AND PUSH1 0x20 DUP7 ADD MSTORE SWAP3 SWAP1 SWAP5 AND SWAP2 DUP4 ADD SWAP2 SWAP1 SWAP2 MSTORE PUSH8 0xFFFFFFFFFFFFFFFF AND PUSH1 0x60 DUP3 ADD MSTORE SWAP1 ISZERO ISZERO PUSH1 0x80 DUP3 ADD MSTORE PUSH1 0xA0 ADD PUSH2 0xFB JUMP JUMPDEST PUSH2 0xF1 PUSH3 0x15180 DUP2 JUMP JUMPDEST PUSH2 0xDC PUSH2 0x749 JUMP JUMPDEST PUSH2 0x2D6 PUSH2 0x2B1 CALLDATASIZE PUSH1 0x4 PUSH2 0xAC5 JUMP JUMPDEST PUSH1 0x1 PUSH1 0x1 PUSH1 0xA0 SHL SUB AND PUSH1 0x0 SWAP1 DUP2 MSTORE PUSH1 0x20 DUP2 SWAP1 MSTORE PUSH1 0x40 SWAP1 KECCAK256 SLOAD PUSH1 0x1 PUSH1 0x60 SHL SWAP1 DIV PUSH1 0xFF AND SWAP1 JUMP JUMPDEST PUSH1 0x40 MLOAD SWAP1 ISZERO ISZERO DUP2 MSTORE PUSH1 0x20 ADD PUSH2 0xFB JUMP JUMPDEST PUSH2 0xDC PUSH2 0x93B JUMP JUMPDEST CALLER PUSH1 0x0 SWAP1 DUP2 MSTORE PUSH1 0x20 DUP2 SWAP1 MSTORE PUSH1 0x40 SWAP1 KECCAK256 DUP1 SLOAD PUSH1 0x1 PUSH1 0x60 SHL SWAP1 DIV PUSH1 0xFF AND PUSH2 0x32E JUMPI PUSH1 0x40 MLOAD PUSH3 0x461BCD PUSH1 0xE5 SHL DUP2 MSTORE PUSH1 0x4 ADD PUSH2 0x325 SWAP1 PUSH2 0xAF5 JUMP JUMPDEST PUSH1 0x40 MLOAD DUP1 SWAP2 SUB SWAP1 REVERT JUMPDEST DUP1 SLOAD PUSH1 0x0 SWAP1 PUSH2 0x34F SWAP1 PUSH5 0x100000000 SWAP1 DIV PUSH8 0xFFFFFFFFFFFFFFFF AND TIMESTAMP PUSH2 0xB37 JUMP JUMPDEST SWAP1 POP PUSH3 0x15180 DUP2 LT ISZERO PUSH2 0x3A4 JUMPI PUSH1 0x40 MLOAD PUSH3 0x461BCD PUSH1 0xE5 SHL DUP2 MSTORE PUSH1 0x20 PUSH1 0x4 DUP3 ADD MSTORE PUSH1 0x18 PUSH1 0x24 DUP3 ADD MSTORE PUSH32 0x416C726561647920636865636B656420696E20746F6461790000000000000000 PUSH1 0x44 DUP3 ADD MSTORE PUSH1 0x64 ADD PUSH2 0x325 JUMP JUMPDEST PUSH2 0x3B2 PUSH3 0x15180 PUSH1 0x2 PUSH2 0xB50 JUMP JUMPDEST DUP2 GT ISZERO PUSH2 0x3CC JUMPI DUP2 SLOAD PUSH3 0xFFFF00 NOT AND PUSH2 0x100 OR DUP3 SSTORE PUSH2 0x3FF JUMP JUMPDEST DUP2 SLOAD PUSH2 0x100 SWAP1 DIV PUSH2 0xFFFF AND DUP3 PUSH1 0x1 PUSH2 0x3E3 DUP4 PUSH2 0xB67 JUMP JUMPDEST SWAP2 SWAP1 PUSH2 0x100 EXP DUP2 SLOAD DUP2 PUSH2 0xFFFF MUL NOT AND SWAP1 DUP4 PUSH2 0xFFFF AND MUL OR SWAP1 SSTORE POP POP JUMPDEST DUP2 SLOAD PUSH12 0xFFFFFFFFFFFFFFFF00000000 NOT AND PUSH5 0x100000000 TIMESTAMP PUSH8 0xFFFFFFFFFFFFFFFF AND MUL OR DUP1 DUP4 SSTORE PUSH1 0x0 SWAP1 PUSH2 0x43B SWAP1 PUSH2 0x100 SWAP1 DIV PUSH2 0xFFFF AND PUSH2 0xA7F JUMP JUMPDEST DUP4 SLOAD PUSH4 0xFF000000 NOT AND PUSH4 0x1000000 PUSH1 0xFF DUP4 AND SWAP1 DUP2 MUL SWAP2 SWAP1 SWAP2 OR DUP1 DUP7 SSTORE PUSH1 0x40 DUP1 MLOAD PUSH2 0x100 SWAP1 SWAP3 DIV PUSH2 0xFFFF AND DUP3 MSTORE PUSH1 0x20 DUP3 ADD SWAP3 SWAP1 SWAP3 MSTORE SWAP2 SWAP3 POP CALLER SWAP2 PUSH32 0x543143EF2D93FA5307B802690111B118F80158EB63AEB1967E871013415C06A4 SWAP2 ADD PUSH1 0x40 MLOAD DUP1 SWAP2 SUB SWAP1 LOG2 POP POP POP JUMP JUMPDEST PUSH1 0x1 PUSH1 0x1 PUSH1 0xA0 SHL SUB DUP2 AND PUSH1 0x0 SWAP1 DUP2 MSTORE PUSH1 0x20 DUP2 DUP2 MSTORE PUSH1 0x40 DUP1 DUP4 KECCAK256 DUP2 MLOAD PUSH1 0xA0 DUP2 ADD DUP4 MSTORE SWAP1 SLOAD PUSH1 0xFF DUP1 DUP3 AND DUP4 MSTORE PUSH2 0xFFFF PUSH2 0x100 DUP4 DIV AND SWAP5 DUP4 ADD SWAP5 SWAP1 SWAP5 MSTORE PUSH4 0x1000000 DUP2 DIV DUP5 AND SWAP3 DUP3 ADD SWAP3 SWAP1 SWAP3 MSTORE PUSH8 0xFFFFFFFFFFFFFFFF PUSH5 0x100000000 DUP4 DIV AND PUSH1 0x60 DUP3 ADD MSTORE PUSH1 0x1 PUSH1 0x60 SHL SWAP1 SWAP2 DIV SWAP1 SWAP2 AND ISZERO ISZERO PUSH1 0x80 DUP3 ADD DUP2 SWAP1 MSTORE PUSH2 0x526 JUMPI POP PUSH1 0x0 SWAP3 SWAP2 POP POP JUMP JUMPDEST PUSH1 0x0 DUP2 PUSH1 0x60 ADD MLOAD PUSH8 0xFFFFFFFFFFFFFFFF AND TIMESTAMP PUSH2 0x542 SWAP2 SWAP1 PUSH2 0xB37 JUMP JUMPDEST SWAP1 POP PUSH3 0x15180 DUP2 LT PUSH2 0x558 JUMPI POP PUSH1 0x0 SWAP4 SWAP3 POP POP POP JUMP JUMPDEST PUSH2 0x565 DUP2 PUSH3 0x15180 PUSH2 0xB37 JUMP JUMPDEST SWAP5 SWAP4 POP POP POP POP JUMP JUMPDEST PUSH1 0x40 DUP1 MLOAD PUSH1 0xA0 DUP2 ADD DUP3 MSTORE PUSH1 0x0 DUP1 DUP3 MSTORE PUSH1 0x20 DUP1 DUP4 ADD DUP3 SWAP1 MSTORE DUP3 DUP5 ADD DUP3 SWAP1 MSTORE PUSH1 0x60 DUP4 ADD DUP3 SWAP1 MSTORE PUSH1 0x80 DUP4 ADD DUP3 SWAP1 MSTORE PUSH1 0x1 PUSH1 0x1 PUSH1 0xA0 SHL SUB DUP6 AND DUP3 MSTORE DUP2 SWAP1 MSTORE SWAP2 SWAP1 SWAP2 KECCAK256 SLOAD PUSH1 0x1 PUSH1 0x60 SHL SWAP1 DIV PUSH1 0xFF AND PUSH2 0x5D2 JUMPI PUSH1 0x40 MLOAD PUSH3 0x461BCD PUSH1 0xE5 SHL DUP2 MSTORE PUSH1 0x4 ADD PUSH2 0x325 SWAP1 PUSH2 0xAF5 JUMP JUMPDEST POP PUSH1 0x1 PUSH1 0x1 PUSH1 0xA0 SHL SUB AND PUSH1 0x0 SWAP1 DUP2 MSTORE PUSH1 0x20 DUP2 DUP2 MSTORE PUSH1 0x40 SWAP2 DUP3 SWAP1 KECCAK256 DUP3 MLOAD PUSH1 0xA0 DUP2 ADD DUP5 MSTORE SWAP1 SLOAD PUSH1 0xFF DUP1 DUP3 AND DUP4 MSTORE PUSH2 0xFFFF PUSH2 0x100 DUP4 DIV AND SWAP4 DUP4 ADD SWAP4 SWAP1 SWAP4 MSTORE PUSH4 0x1000000 DUP2 DIV DUP4 AND SWAP4 DUP3 ADD SWAP4 SWAP1 SWAP4 MSTORE PUSH8 0xFFFFFFFFFFFFFFFF PUSH5 0x100000000 DUP5 DIV AND PUSH1 0x60 DUP3 ADD MSTORE PUSH1 0x1 PUSH1 0x60 SHL SWAP1 SWAP3 DIV AND ISZERO ISZERO PUSH1 0x80 DUP3 ADD MSTORE SWAP1 JUMP JUMPDEST PUSH1 0x1 PUSH1 0x1 PUSH1 0xA0 SHL SUB DUP2 AND PUSH1 0x0 SWAP1 DUP2 MSTORE PUSH1 0x20 DUP2 SWAP1 MSTORE PUSH1 0x40 SWAP1 KECCAK256 DUP1 SLOAD PUSH1 0x1 PUSH1 0x60 SHL SWAP1 DIV PUSH1 0xFF AND PUSH2 0x687 JUMPI PUSH1 0x40 MLOAD PUSH3 0x461BCD PUSH1 0xE5 SHL DUP2 MSTORE PUSH1 0x4 ADD PUSH2 0x325 SWAP1 PUSH2 0xAF5 JUMP JUMPDEST DUP1 SLOAD PUSH1 0xFF AND PUSH2 0x6D8 JUMPI PUSH1 0x40 MLOAD PUSH3 0x461BCD PUSH1 0xE5 SHL DUP2 MSTORE PUSH1 0x20 PUSH1 0x4 DUP3 ADD MSTORE PUSH1 0x18 PUSH1 0x24 DUP3 ADD MSTORE PUSH32 0x43617420686173206E6F206C6976657320746F206C6F73650000000000000000 PUSH1 0x44 DUP3 ADD MSTORE PUSH1 0x64 ADD PUSH2 0x325 JUMP JUMPDEST DUP1 SLOAD PUSH1 0xFF AND DUP2 PUSH1 0x0 PUSH2 0x6E9 DUP4 PUSH2 0xB88 JUMP JUMPDEST DUP3 SLOAD PUSH2 0x100 SWAP3 SWAP1 SWAP3 EXP PUSH1 0xFF DUP2 DUP2 MUL NOT SWAP1 SWAP4 AND SWAP2 DUP4 AND MUL OR SWAP1 SWAP2 SSTORE DUP3 SLOAD PUSH1 0x40 MLOAD SWAP2 AND DUP2 MSTORE PUSH1 0x1 PUSH1 0x1 PUSH1 0xA0 SHL SUB DUP5 AND SWAP2 POP PUSH32 0xD948B7282D54EF44BF4FB0B1D38F0626ADB9B838DD1BDC33C53A117A7F03B530 SWAP1 PUSH1 0x20 ADD PUSH1 0x40 MLOAD DUP1 SWAP2 SUB SWAP1 LOG2 POP POP JUMP JUMPDEST CALLER PUSH1 0x0 SWAP1 DUP2 MSTORE PUSH1 0x20 DUP2 SWAP1 MSTORE PUSH1 0x40 SWAP1 KECCAK256 DUP1 SLOAD PUSH1 0x1 PUSH1 0x60 SHL SWAP1 DIV PUSH1 0xFF AND PUSH2 0x780 JUMPI PUSH1 0x40 MLOAD PUSH3 0x461BCD PUSH1 0xE5 SHL DUP2 MSTORE PUSH1 0x4 ADD PUSH2 0x325 SWAP1 PUSH2 0xAF5 JUMP JUMPDEST DUP1 SLOAD PUSH1 0x9 PUSH1 0xFF SWAP1 SWAP2 AND LT PUSH2 0x7D6 JUMPI PUSH1 0x40 MLOAD PUSH3 0x461BCD PUSH1 0xE5 SHL DUP2 MSTORE PUSH1 0x20 PUSH1 0x4 DUP3 ADD MSTORE PUSH1 0x1D PUSH1 0x24 DUP3 ADD MSTORE PUSH32 0x43617420616C726561647920686173206D6178696D756D206C69766573000000 PUSH1 0x44 DUP3 ADD MSTORE PUSH1 0x64 ADD PUSH2 0x325 JUMP JUMPDEST PUSH1 0x40 MLOAD PUSH4 0x23B872DD PUSH1 0xE0 SHL DUP2 MSTORE CALLER PUSH1 0x4 DUP3 ADD MSTORE PUSH1 0x1 PUSH1 0x1 PUSH1 0xA0 SHL SUB PUSH32 0x0 DUP2 AND PUSH1 0x24 DUP4 ADD MSTORE PUSH3 0xF4240 PUSH1 0x44 DUP4 ADD MSTORE PUSH32 0x0 AND SWAP1 PUSH4 0x23B872DD SWAP1 PUSH1 0x64 ADD PUSH1 0x20 PUSH1 0x40 MLOAD DUP1 DUP4 SUB DUP2 PUSH1 0x0 DUP8 GAS CALL ISZERO DUP1 ISZERO PUSH2 0x86D JUMPI RETURNDATASIZE PUSH1 0x0 DUP1 RETURNDATACOPY RETURNDATASIZE PUSH1 0x0 REVERT JUMPDEST POP POP POP POP PUSH1 0x40 MLOAD RETURNDATASIZE PUSH1 0x1F NOT PUSH1 0x1F DUP3 ADD AND DUP3 ADD DUP1 PUSH1 0x40 MSTORE POP DUP2 ADD SWAP1 PUSH2 0x891 SWAP2 SWAP1 PUSH2 0xBA5 JUMP JUMPDEST PUSH2 0x8D4 JUMPI PUSH1 0x40 MLOAD PUSH3 0x461BCD PUSH1 0xE5 SHL DUP2 MSTORE PUSH1 0x20 PUSH1 0x4 DUP3 ADD MSTORE PUSH1 0x14 PUSH1 0x24 DUP3 ADD MSTORE PUSH20 0x1554D110C81D1C985B9CD9995C8819985A5B1959 PUSH1 0x62 SHL PUSH1 0x44 DUP3 ADD MSTORE PUSH1 0x64 ADD PUSH2 0x325 JUMP JUMPDEST DUP1 SLOAD PUSH1 0xFF AND DUP2 PUSH1 0x0 PUSH2 0x8E5 DUP4 PUSH2 0xBC7 JUMP JUMPDEST DUP3 SLOAD PUSH2 0x100 SWAP3 SWAP1 SWAP3 EXP PUSH1 0xFF DUP2 DUP2 MUL NOT SWAP1 SWAP4 AND SWAP2 DUP4 AND MUL OR SWAP1 SWAP2 SSTORE DUP3 SLOAD PUSH1 0x40 MLOAD SWAP2 AND DUP2 MSTORE CALLER SWAP2 POP PUSH32 0x78D4AE2FFC1E8B72BDDAE34531B49927F54C4DAB8342042AF369B0066CB63745 SWAP1 PUSH1 0x20 ADD PUSH1 0x40 MLOAD DUP1 SWAP2 SUB SWAP1 LOG2 POP JUMP JUMPDEST CALLER PUSH1 0x0 SWAP1 DUP2 MSTORE PUSH1 0x20 DUP2 SWAP1 MSTORE PUSH1 0x40 SWAP1 KECCAK256 SLOAD PUSH1 0x1 PUSH1 0x60 SHL SWAP1 DIV PUSH1 0xFF AND ISZERO PUSH2 0x997 JUMPI PUSH1 0x40 MLOAD PUSH3 0x461BCD PUSH1 0xE5 SHL DUP2 MSTORE PUSH1 0x20 PUSH1 0x4 DUP3 ADD MSTORE PUSH1 0x12 PUSH1 0x24 DUP3 ADD MSTORE PUSH18 0x43617420616C726561647920657869737473 PUSH1 0x70 SHL PUSH1 0x44 DUP3 ADD MSTORE PUSH1 0x64 ADD PUSH2 0x325 JUMP JUMPDEST PUSH1 0x40 DUP1 MLOAD PUSH1 0xA0 DUP2 ADD DUP3 MSTORE PUSH1 0x9 DUP2 MSTORE PUSH1 0x0 PUSH1 0x20 DUP1 DUP4 ADD DUP3 DUP2 MSTORE DUP4 DUP6 ADD DUP4 DUP2 MSTORE PUSH8 0xFFFFFFFFFFFFFFFF TIMESTAMP DUP2 AND PUSH1 0x60 DUP8 ADD SWAP1 DUP2 MSTORE PUSH1 0x1 PUSH1 0x80 DUP9 ADD SWAP1 DUP2 MSTORE CALLER DUP1 DUP9 MSTORE SWAP6 DUP8 SWAP1 MSTORE DUP9 DUP8 KECCAK256 SWAP8 MLOAD DUP9 SLOAD SWAP6 MLOAD SWAP5 MLOAD SWAP3 MLOAD SWAP2 MLOAD ISZERO ISZERO PUSH1 0x1 PUSH1 0x60 SHL MUL PUSH1 0xFF PUSH1 0x60 SHL NOT SWAP3 SWAP1 SWAP5 AND PUSH5 0x100000000 MUL PUSH12 0xFFFFFFFFFFFFFFFF00000000 NOT PUSH1 0xFF SWAP5 DUP6 AND PUSH4 0x1000000 MUL AND PUSH12 0xFFFFFFFFFFFFFFFFFF000000 NOT PUSH2 0xFFFF SWAP8 SWAP1 SWAP8 AND PUSH2 0x100 MUL PUSH3 0xFFFFFF NOT SWAP1 SWAP9 AND SWAP3 SWAP1 SWAP5 AND SWAP2 SWAP1 SWAP2 OR SWAP6 SWAP1 SWAP6 OR SWAP4 SWAP1 SWAP4 AND OR SWAP3 SWAP1 SWAP3 OR AND OR SWAP1 SWAP3 SSTORE SWAP2 MLOAD SWAP1 SWAP2 PUSH32 0xCAFA253929E746DEB76C4C5E47B024BA91E9034D6B06E97C1EAE152656B22DDA SWAP2 LOG2 JUMP JUMPDEST PUSH1 0x0 PUSH1 0xC DUP3 PUSH2 0xFFFF AND LT PUSH2 0xA95 JUMPI POP PUSH1 0x3 SWAP2 SWAP1 POP JUMP JUMPDEST PUSH1 0x7 DUP3 PUSH2 0xFFFF AND LT PUSH2 0xAA9 JUMPI POP PUSH1 0x2 SWAP2 SWAP1 POP JUMP JUMPDEST PUSH1 0x3 DUP3 PUSH2 0xFFFF AND LT PUSH2 0xABD JUMPI POP PUSH1 0x1 SWAP2 SWAP1 POP JUMP JUMPDEST POP PUSH1 0x0 SWAP2 SWAP1 POP JUMP JUMPDEST PUSH1 0x0 PUSH1 0x20 DUP3 DUP5 SUB SLT ISZERO PUSH2 0xAD7 JUMPI PUSH1 0x0 DUP1 REVERT JUMPDEST DUP2 CALLDATALOAD PUSH1 0x1 PUSH1 0x1 PUSH1 0xA0 SHL SUB DUP2 AND DUP2 EQ PUSH2 0xAEE JUMPI PUSH1 0x0 DUP1 REVERT JUMPDEST SWAP4 SWAP3 POP POP POP JUMP JUMPDEST PUSH1 0x20 DUP1 DUP3 MSTORE PUSH1 0x12 SWAP1 DUP3 ADD MSTORE PUSH18 0x10D85D08191BD95CC81B9BDD08195E1A5CDD PUSH1 0x72 SHL PUSH1 0x40 DUP3 ADD MSTORE PUSH1 0x60 ADD SWAP1 JUMP JUMPDEST PUSH4 0x4E487B71 PUSH1 0xE0 SHL PUSH1 0x0 MSTORE PUSH1 0x11 PUSH1 0x4 MSTORE PUSH1 0x24 PUSH1 0x0 REVERT JUMPDEST DUP2 DUP2 SUB DUP2 DUP2 GT ISZERO PUSH2 0xB4A JUMPI PUSH2 0xB4A PUSH2 0xB21 JUMP JUMPDEST SWAP3 SWAP2 POP POP JUMP JUMPDEST DUP1 DUP3 MUL DUP2 ISZERO DUP3 DUP3 DIV DUP5 EQ OR PUSH2 0xB4A JUMPI PUSH2 0xB4A PUSH2 0xB21 JUMP JUMPDEST PUSH1 0x0 PUSH2 0xFFFF DUP1 DUP4 AND DUP2 DUP2 SUB PUSH2 0xB7E JUMPI PUSH2 0xB7E PUSH2 0xB21 JUMP JUMPDEST PUSH1 0x1 ADD SWAP4 SWAP3 POP POP POP JUMP JUMPDEST PUSH1 0x0 PUSH1 0xFF DUP3 AND DUP1 PUSH2 0xB9B JUMPI PUSH2 0xB9B PUSH2 0xB21 JUMP JUMPDEST PUSH1 0x0 NOT ADD SWAP3 SWAP2 POP POP JUMP JUMPDEST PUSH1 0x0 PUSH1 0x20 DUP3 DUP5 SUB SLT ISZERO PUSH2 0xBB7 JUMPI PUSH1 0x0 DUP1 REVERT JUMPDEST DUP2 MLOAD DUP1 ISZERO ISZERO DUP2 EQ PUSH2 0xAEE JUMPI PUSH1 0x0 DUP1 REVERT JUMPDEST PUSH1 0x0 PUSH1 0xFF DUP3 AND PUSH1 0xFF DUP2 SUB PUSH2 0xBDD JUMPI PUSH2 0xBDD PUSH2 0xB21 JUMP JUMPDEST PUSH1 0x1 ADD SWAP3 SWAP2 POP POP JUMP INVALID LOG2 PUSH5 0x6970667358 0x22 SLT KECCAK256 LOG0 BLOCKHASH 0xC4 0xDB PUSH30 0xDE75377EC03E363969CD31DF32724988A5CE941E5CE5911C3008F764736F PUSH13 0x63430008140033000000000000 "},"methodIdentifiers":{"CHECK_IN_INTERVAL()":"9d8da226","MAX_LIVES()":"51e81c31","RESTORE_COST()":"82a5ad87","cats(address)":"96be9c1d","checkIn()":"183ff085","createCat()":"ee1b0edf","getCat(address)":"3ea026e7","hasCat(address)":"ebe37a02","loseLife(address)":"49b64bd8","restoreLife()":"cb91a07c","timeUntilNextCheckIn(address)":"36f793f5","treasury()":"61d027b3","usdc()":"3e413bee"}}}}}