{
  "_format": "hh-sol-artifact-1",
  "contractName": "NineLives",
  "sourceName": "contracts/NineLives.sol",
  "abi": [
    {
      "inputs": [
        {
          "internalType": "address",
          "name": "_usdc",
          "type": "address"
        },
        {
          "internalType": "address",
          "name": "_treasury",
          "type": "address"
        }
      ],
      "stateMutability": "nonpayable",
      "type": "constructor"
    },
    {
      "anonymous": false,
      "inputs": [
        {
          "indexed": true,
          "internalType": "address",
          "name": "owner",
          "type": "address"
        }
      ],
      "name": "CatCreated",
      "type": "event"
    },
    {
      "anonymous": false,
      "inputs": [
        {
          "indexed": true,
          "internalType": "address",
          "name": "owner",
          "type": "address"
        },
        {
          "indexed": false,
          "internalType": "uint16",
          "name": "streak",
          "type": "uint16"
        },
        {
          "indexed": false,
          "internalType": "uint8",
          "name": "stage",
          "type": "uint8"
        }
      ],
      "name": "CheckedIn",
      "type": "event"
    },
    {
      "anonymous": false,
      "inputs": [
        {
          "indexed": true,
          "internalType": "address",
          "name": "owner",
          "type": "address"
        },
        {
          "indexed": false,
          "internalType": "uint8",
          "name": "lives",
          "type": "uint8"
        }
      ],
      "name": "LifeLost",
      "type": "event"
    },
    {
      "anonymous": false,
      "inputs": [
        {
          "indexed": true,
          "internalType": "address",
          "name": "owner",
          "type": "address"
        },
        {
          "indexed": false,
          "internalType": "uint8",
          "name": "lives",
          "type": "uint8"
        }
      ],
      "name": "LifeRestored",
      "type": "event"
    },
    {
      "inputs": [],
      "name": "CHECK_IN_INTERVAL",
      "outputs": [
        {
          "internalType": "uint256",
          "name": "",
          "type": "uint256"
        }
      ],
      "stateMutability": "view",
      "type": "function"
    },
    {
      "inputs": [],
      "name": "MAX_LIVES",
      "outputs": [
        {
          "internalType": "uint256",
          "name": "",
          "type": "uint256"
        }
      ],
      "stateMutability": "view",
      "type": "function"
    },
    {
      "inputs": [],
      "name": "RESTORE_COST",
      "outputs": [
        {
          "internalType": "uint256",
          "name": "",
          "type": "uint256"
        }
      ],
      "stateMutability": "view",
      "type": "function"
    },
    {
      "inputs": [
        {
          "internalType": "address",
          "name": "",
          "type": "address"
        }
      ],
      "name": "cats",
      "outputs": [
        {
          "internalType": "uint8",
          "name": "lives",
          "type": "uint8"
        },
        {
          "internalType": "uint16",
          "name": "streak",
          "type": "uint16"
        },
        {
          "internalType": "uint8",
          "name": "stage",
          "type": "uint8"
        },
        {
          "internalType": "uint64",
          "name": "lastCheckIn",
          "type": "uint64"
        },
        {
          "internalType": "bool",
          "name": "exists",
          "type": "bool"
        }
      ],
      "stateMutability": "view",
      "type": "function"
    },
    {
      "inputs": [],
      "name": "checkIn",
      "outputs": [],
      "stateMutability": "nonpayable",
      "type": "function"
    },
    {
      "inputs": [],
      "name": "createCat",
      "outputs": [],
      "stateMutability": "nonpayable",
      "type": "function"
    },
    {
      "inputs": [
        {
          "internalType": "address",
          "name": "user",
          "type": "address"
        }
      ],
      "name": "getCat",
      "outputs": [
        {
          "components": [
            {
              "internalType": "uint8",
              "name": "lives",
              "type": "uint8"
            },
            {
              "internalType": "uint16",
              "name": "streak",
              "type": "uint16"
            },
            {
              "internalType": "uint8",
              "name": "stage",
              "type": "uint8"
            },
            {
              "internalType": "uint64",
              "name": "lastCheckIn",
              "type": "uint64"
            },
            {
              "internalType": "bool",
              "name": "exists",
              "type": "bool"
            }
          ],
          "internalType": "struct NineLives.Cat",
          "name": "",
          "type": "tuple"
        }
      ],
      "stateMutability": "view",
      "type": "function"
    },
    {
      "inputs": [
        {
          "internalType": "address",
          "name": "user",
          "type": "address"
        }
      ],
      "name": "hasCat",
      "outputs": [
        {
          "internalType": "bool",
          "name": "",
          "type": "bool"
        }
      ],
      "stateMutability": "view",
      "type": "function"
    },
    {
      "inputs": [
        {
          "internalType": "address",
          "name": "user",
          "type": "address"
        }
      ],
      "name": "loseLife",
      "outputs": [],
      "stateMutability": "nonpayable",
      "type": "function"
    },
    {
      "inputs": [],
      "name": "restoreLife",
      "outputs": [],
      "stateMutability": "nonpayable",
      "type": "function"
    },
    {
      "inputs": [
        {
          "internalType": "address",
          "name": "user",
          "type": "address"
        }
      ],
      "name": "timeUntilNextCheckIn",
      "outputs": [
        {
          "internalType": "uint256",
          "name": "",
          "type": "uint256"
        }
      ],
      "stateMutability": "view",
      "type": "function"
    },
    {
      "inputs": [],
      "name": "treasury",
      "outputs": [
        {
          "internalType": "address",
          "name": "",
          "type": "address"
        }
      ],
      "stateMutability": "view",
      "type": "function"
    },
    {
      "inputs": [],
      "name": "usdc",
      "outputs": [
        {
          "internalType": "contract IERC20",
          "name": "",
          "type": "address"
        }
      ],
      "stateMutability": "view",
      "type": "function"
    }
  ],
  "bytecode": "0x60c060405234801561001057600080fd5b50604051610d95380380610d9583398101604081905261002f91610113565b6001600160a01b03821661008a5760405162461bcd60e51b815260206004820152601460248201527f496e76616c69642055534443206164647265737300000000000000000000000060448201526064015b60405180910390fd5b6001600160a01b0381166100e05760405162461bcd60e51b815260206004820152601860248201527f496e76616c6964207472656173757279206164647265737300000000000000006044820152606401610081565b6001600160a01b039182166080521660a052610146565b80516001600160a01b038116811461010e57600080fd5b919050565b6000806040838503121561012657600080fd5b61012f836100f7565b915061013d602084016100f7565b90509250929050565b60805160a051610c1c610179600039600081816101ce01526107f301526000818161010901526108240152610c1c6000f3fe608060405234801561001057600080fd5b50600436106100cf5760003560e01c806361d027b31161008c5780639d8da226116100665780639d8da22614610291578063cb91a07c1461029b578063ebe37a02146102a3578063ee1b0edf146102e657600080fd5b806361d027b3146101c957806382a5ad87146101f057806396be9c1d146101fa57600080fd5b8063183ff085146100d457806336f793f5146100de5780633e413bee146101045780633ea026e71461014357806349b64bd8146101ae57806351e81c31146101c1575b600080fd5b6100dc6102ee565b005b6100f16100ec366004610ac5565b6104a4565b6040519081526020015b60405180910390f35b61012b7f000000000000000000000000000000000000000000000000000000000000000081565b6040516001600160a01b0390911681526020016100fb565b610156610151366004610ac5565b61056d565b6040516100fb9190600060a08201905060ff835116825261ffff602084015116602083015260ff604084015116604083015267ffffffffffffffff606084015116606083015260808301511515608083015292915050565b6100dc6101bc366004610ac5565b610647565b6100f1600981565b61012b7f000000000000000000000000000000000000000000000000000000000000000081565b6100f1620f424081565b610250610208366004610ac5565b60006020819052908152604090205460ff8082169161ffff610100820416916301000000820481169167ffffffffffffffff64010000000082041691600160601b9091041685565b6040805160ff968716815261ffff959095166020860152929094169183019190915267ffffffffffffffff166060820152901515608082015260a0016100fb565b6100f16201518081565b6100dc610749565b6102d66102b1366004610ac5565b6001600160a01b0316600090815260208190526040902054600160601b900460ff1690565b60405190151581526020016100fb565b6100dc61093b565b3360009081526020819052604090208054600160601b900460ff1661032e5760405162461bcd60e51b815260040161032590610af5565b60405180910390fd5b805460009061034f90640100000000900467ffffffffffffffff1642610b37565b9050620151808110156103a45760405162461bcd60e51b815260206004820152601860248201527f416c726561647920636865636b656420696e20746f64617900000000000000006044820152606401610325565b6103b2620151806002610b50565b8111156103cc57815462ffff0019166101001782556103ff565b8154610100900461ffff168260016103e383610b67565b91906101000a81548161ffff021916908361ffff160217905550505b81546bffffffffffffffff0000000019166401000000004267ffffffffffffffff16021780835560009061043b90610100900461ffff16610a7f565b835463ff0000001916630100000060ff8316908102919091178086556040805161010090920461ffff168252602082019290925291925033917f543143ef2d93fa5307b802690111b118f80158eb63aeb1967e871013415c06a4910160405180910390a2505050565b6001600160a01b038116600090815260208181526040808320815160a081018352905460ff808216835261ffff610100830416948301949094526301000000810484169282019290925267ffffffffffffffff6401000000008304166060820152600160601b9091049091161515608082018190526105265750600092915050565b6000816060015167ffffffffffffffff16426105429190610b37565b9050620151808110610558575060009392505050565b6105658162015180610b37565b949350505050565b6040805160a0810182526000808252602080830182905282840182905260608301829052608083018290526001600160a01b03851682528190529190912054600160601b900460ff166105d25760405162461bcd60e51b815260040161032590610af5565b506001600160a01b031660009081526020818152604091829020825160a081018452905460ff808216835261ffff610100830416938301939093526301000000810483169382019390935267ffffffffffffffff6401000000008404166060820152600160601b909204161515608082015290565b6001600160a01b03811660009081526020819052604090208054600160601b900460ff166106875760405162461bcd60e51b815260040161032590610af5565b805460ff166106d85760405162461bcd60e51b815260206004820152601860248201527f43617420686173206e6f206c6976657320746f206c6f736500000000000000006044820152606401610325565b805460ff168160006106e983610b88565b82546101009290920a60ff8181021990931691831602179091558254604051911681526001600160a01b03841691507fd948b7282d54ef44bf4fb0b1d38f0626adb9b838dd1bdc33c53a117a7f03b5309060200160405180910390a25050565b3360009081526020819052604090208054600160601b900460ff166107805760405162461bcd60e51b815260040161032590610af5565b8054600960ff909116106107d65760405162461bcd60e51b815260206004820152601d60248201527f43617420616c726561647920686173206d6178696d756d206c697665730000006044820152606401610325565b6040516323b872dd60e01b81523360048201526001600160a01b037f000000000000000000000000000000000000000000000000000000000000000081166024830152620f424060448301527f000000000000000000000000000000000000000000000000000000000000000016906323b872dd906064016020604051808303816000875af115801561086d573d6000803e3d6000fd5b505050506040513d601f19601f820116820180604052508101906108919190610ba5565b6108d45760405162461bcd60e51b81526020600482015260146024820152731554d110c81d1c985b9cd9995c8819985a5b195960621b6044820152606401610325565b805460ff168160006108e583610bc7565b82546101009290920a60ff8181021990931691831602179091558254604051911681523391507f78d4ae2ffc1e8b72bddae34531b49927f54c4dab8342042af369b0066cb637459060200160405180910390a250565b33600090815260208190526040902054600160601b900460ff16156109975760405162461bcd60e51b815260206004820152601260248201527143617420616c72656164792065786973747360701b6044820152606401610325565b6040805160a081018252600981526000602080830182815283850183815267ffffffffffffffff4281166060870190815260016080880190815233808852958790528887209751885495519451925191511515600160601b0260ff60601b1992909416640100000000026bffffffffffffffff000000001960ff948516630100000002166bffffffffffffffffff0000001961ffff979097166101000262ffffff199098169290941691909117959095179390931617929092171617909255915190917fcafa253929e746deb76c4c5e47b024ba91e9034d6b06e97c1eae152656b22dda91a2565b6000600c8261ffff1610610a9557506003919050565b60078261ffff1610610aa957506002919050565b60038261ffff1610610abd57506001919050565b506000919050565b600060208284031215610ad757600080fd5b81356001600160a01b0381168114610aee57600080fd5b9392505050565b60208082526012908201527110d85d08191bd95cc81b9bdd08195e1a5cdd60721b604082015260600190565b634e487b7160e01b600052601160045260246000fd5b81810381811115610b4a57610b4a610b21565b92915050565b8082028115828204841417610b4a57610b4a610b21565b600061ffff808316818103610b7e57610b7e610b21565b6001019392505050565b600060ff821680610b9b57610b9b610b21565b6000190192915050565b600060208284031215610bb757600080fd5b81518015158114610aee57600080fd5b600060ff821660ff8103610bdd57610bdd610b21565b6001019291505056fea2646970667358221220a040c4db7dde75377ec03e363969cd31df32724988a5ce941e5ce5911c3008f764736f6c63430008140033",
  "linkReferences": {},
  "deployedLinkReferences": {}
}